{
	"data": {
		"bytecode": {
			"linkReferences": {},
			"object": "6080604052348015600f57600080fd5b50606d80601d6000396000f3fe6080604052348015600f57600080fd5b506004361060285760003560e01c8063bca8698614602d575b600080fd5b60336035565b005b56fea2646970667358221220a607f90c6c90fb6c8d29f223e8300e19d36aa564a7877721031dfe4d180c6d5c64736f6c63430008070033",
			"opcodes": "PUSH1 0x80 PUSH1 0x40 MSTORE CALLVALUE DUP1 ISZERO PUSH1 0xF JUMPI PUSH1 0x0 DUP1 REVERT JUMPDEST POP PUSH1 0x6D DUP1 PUSH1 0x1D PUSH1 0x0 CODECOPY PUSH1 0x0 RETURN INVALID PUSH1 0x80 PUSH1 0x40 MSTORE CALLVALUE DUP1 ISZERO PUSH1 0xF JUMPI PUSH1 0x0 DUP1 REVERT JUMPDEST POP PUSH1 0x4 CALLDATASIZE LT PUSH1 0x28 JUMPI PUSH1 0x0 CALLDATALOAD PUSH1 0xE0 SHR DUP1 PUSH4 0xBCA86986 EQ PUSH1 0x2D JUMPI JUMPDEST PUSH1 0x0 DUP1 REVERT JUMPDEST PUSH1 0x33 PUSH1 0x35 JUMP JUMPDEST STOP JUMPDEST JUMP INVALID LOG2 PUSH5 0x6970667358 0x22 SLT KECCAK256 0xA6 SMOD 0xF9 0xC PUSH13 0x90FB6C8D29F223E8300E19D36A 0xA5 PUSH5 0xA787772103 SAR INVALID 0x4D XOR 0xC PUSH14 0x5C64736F6C634300080700330000 "
		},
		"gasEstimates": {
			"creation": {
				"codeDepositCost": "21800",
				"executionCost": "75",
				"totalCost": "21875"
			},
			"external": {
				"testSetup()": "122"
			}
		},
		"methodIdentifiers": {
			"testSetup()": "bca86986"
		}
	},
	"abi": [
		{
			"inputs": [],
			"name": "testSetup",
			"outputs": [],
			"stateMutability": "nonpayable",
			"type": "function"
		}
	]
}