{
  "contractName": "NST_offering",
  "abi": [
    {
      "inputs": [
        {
          "internalType": "address payable",
          "name": "_NeverShareAddress",
          "type": "address"
        }
      ],
      "stateMutability": "nonpayable",
      "type": "constructor"
    },
    {
      "inputs": [],
      "name": "NeverShareAddress",
      "outputs": [
        {
          "internalType": "address payable",
          "name": "",
          "type": "address"
        }
      ],
      "stateMutability": "view",
      "type": "function"
    },
    {
      "inputs": [],
      "name": "Round1End",
      "outputs": [
        {
          "internalType": "uint256",
          "name": "",
          "type": "uint256"
        }
      ],
      "stateMutability": "view",
      "type": "function"
    },
    {
      "inputs": [],
      "name": "Round2End",
      "outputs": [
        {
          "internalType": "uint256",
          "name": "",
          "type": "uint256"
        }
      ],
      "stateMutability": "view",
      "type": "function"
    },
    {
      "inputs": [],
      "name": "ended",
      "outputs": [
        {
          "internalType": "bool",
          "name": "",
          "type": "bool"
        }
      ],
      "stateMutability": "view",
      "type": "function"
    },
    {
      "inputs": [
        {
          "internalType": "uint256",
          "name": "quantity",
          "type": "uint256"
        },
        {
          "internalType": "uint256",
          "name": "price",
          "type": "uint256"
        },
        {
          "internalType": "bool",
          "name": "fake",
          "type": "bool"
        }
      ],
      "name": "bid",
      "outputs": [],
      "stateMutability": "nonpayable",
      "type": "function"
    },
    {
      "inputs": [
        {
          "internalType": "uint256[]",
          "name": "_prices",
          "type": "uint256[]"
        },
        {
          "internalType": "uint256[]",
          "name": "_quantities",
          "type": "uint256[]"
        },
        {
          "internalType": "bool[]",
          "name": "_fake",
          "type": "bool[]"
        }
      ],
      "name": "reveal",
      "outputs": [],
      "stateMutability": "nonpayable",
      "type": "function"
    },
    {
      "inputs": [],
      "name": "issueCoins",
      "outputs": [],
      "stateMutability": "payable",
      "type": "function"
    },
    {
      "inputs": [
        {
          "internalType": "uint256[]",
          "name": "_prices",
          "type": "uint256[]"
        },
        {
          "internalType": "uint256[]",
          "name": "_quantities",
          "type": "uint256[]"
        },
        {
          "internalType": "bool[]",
          "name": "_fake",
          "type": "bool[]"
        }
      ],
      "name": "withdrawBid",
      "outputs": [],
      "stateMutability": "nonpayable",
      "type": "function"
    }
  ],
  "bytecode": "0x60806040523480156200001157600080fd5b5060405162005174380380620051748339818101604052810190620000379190620004a4565b80600360006101000a81548173ffffffffffffffffffffffffffffffffffffffff021916908373ffffffffffffffffffffffffffffffffffffffff16021790555060405162000086906200042c565b604051809103906000f080158015620000a3573d6000803e3d6000fd5b50600260006101000a81548173ffffffffffffffffffffffffffffffffffffffff021916908373ffffffffffffffffffffffffffffffffffffffff160217905550620001426107e6600460146200010542620001b360201b62000c281760201c565b6200011b42620001e160201b62000c521760201c565b62000131426200020d60201b62000c7a1760201c565b6200022560201b62000c901760201c565b600481905550620001a66107e66004601b6200016942620001b360201b62000c281760201c565b6200017f42620001e160201b62000c521760201c565b62000195426200020d60201b62000c7a1760201c565b6200022560201b62000c901760201c565b600581905550506200094d565b6000806201518083620001c791906200050f565b9050610e1081620001d9919062000576565b915050919050565b600080610e1083620001f491906200050f565b9050603c8162000205919062000576565b915050919050565b6000603c826200021e91906200050f565b9050919050565b600081603c84620002379190620005ae565b610e1086620002479190620005ae565b620151806200025e8b8b8b6200029a60201b60201c565b6200026a9190620005ae565b6200027691906200060f565b6200028291906200060f565b6200028e91906200060f565b90509695505050505050565b60006107b2841015620002ac57600080fd5b600084905060008490506000849050600062253d8c60046064600c600e87620002d6919062000676565b620002e2919062000714565b61132488620002f2919062000788565b620002fe919062000788565b6200030a919062000714565b600362000318919062000826565b62000324919062000714565b600c80600c600e8862000338919062000676565b62000344919062000714565b62000350919062000826565b6002876200035f919062000676565b6200036b919062000676565b61016f6200037a919062000826565b62000386919062000714565b6004600c600e8862000399919062000676565b620003a5919062000714565b6112c089620003b5919062000788565b620003c1919062000788565b6105b5620003d0919062000826565b620003dc919062000714565b617d4b86620003ec919062000676565b620003f8919062000788565b62000404919062000788565b62000410919062000676565b6200041c919062000676565b9050809450505050509392505050565b6117248062003a5083390190565b600080fd5b600073ffffffffffffffffffffffffffffffffffffffff82169050919050565b60006200046c826200043f565b9050919050565b6200047e816200045f565b81146200048a57600080fd5b50565b6000815190506200049e8162000473565b92915050565b600060208284031215620004bd57620004bc6200043a565b5b6000620004cd848285016200048d565b91505092915050565b6000819050919050565b7f4e487b7100000000000000000000000000000000000000000000000000000000600052601260045260246000fd5b60006200051c82620004d6565b91506200052983620004d6565b9250826200053c576200053b620004e0565b5b828206905092915050565b7f4e487b7100000000000000000000000000000000000000000000000000000000600052601160045260246000fd5b60006200058382620004d6565b91506200059083620004d6565b925082620005a357620005a2620004e0565b5b828204905092915050565b6000620005bb82620004d6565b9150620005c883620004d6565b9250817fffffffffffffffffffffffffffffffffffffffffffffffffffffffffffffffff048311821515161562000604576200060362000547565b5b828202905092915050565b60006200061c82620004d6565b91506200062983620004d6565b9250827fffffffffffffffffffffffffffffffffffffffffffffffffffffffffffffffff0382111562000661576200066062000547565b5b828201905092915050565b6000819050919050565b600062000683826200066c565b915062000690836200066c565b9250827f800000000000000000000000000000000000000000000000000000000000000001821260008412151615620006ce57620006cd62000547565b5b827f7fffffffffffffffffffffffffffffffffffffffffffffffffffffffffffffff01821360008412161562000709576200070862000547565b5b828203905092915050565b600062000721826200066c565b91506200072e836200066c565b925082620007415762000740620004e0565b5b600160000383147f8000000000000000000000000000000000000000000000000000000000000000831416156200077d576200077c62000547565b5b828205905092915050565b600062000795826200066c565b9150620007a2836200066c565b9250817f7fffffffffffffffffffffffffffffffffffffffffffffffffffffffffffffff03831360008312151615620007e057620007df62000547565b5b817f80000000000000000000000000000000000000000000000000000000000000000383126000831216156200081b576200081a62000547565b5b828201905092915050565b600062000833826200066c565b915062000840836200066c565b9250827f7fffffffffffffffffffffffffffffffffffffffffffffffffffffffffffffff048211600084136000841316161562000882576200088162000547565b5b817f80000000000000000000000000000000000000000000000000000000000000000583126000841260008413161615620008c257620008c162000547565b5b827f8000000000000000000000000000000000000000000000000000000000000000058212600084136000841216161562000902576200090162000547565b5b827f7fffffffffffffffffffffffffffffffffffffffffffffffffffffffffffffff058212600084126000841216161562000942576200094162000547565b5b828202905092915050565b6130f3806200095d6000396000f3fe60806040526004361061007b5760003560e01c80637d8592351161004e5780637d859235146101285780637f1aa3a6146101535780639064ae7c1461015d578063b5f717d3146101865761007b565b806312fa6feb146100805780633a9c46a9146100ab5780634a1fde11146100d657806377c78053146100ff575b600080fd5b34801561008c57600080fd5b506100956101b1565b6040516100a291906125d4565b60405180910390f35b3480156100b757600080fd5b506100c06101c4565b6040516100cd9190612608565b60405180910390f35b3480156100e257600080fd5b506100fd60048036038101906100f891906128ab565b6101ca565b005b34801561010b57600080fd5b50610126600480360381019061012191906128ab565b6103b0565b005b34801561013457600080fd5b5061013d610572565b60405161014a9190612608565b60405180910390f35b61015b610578565b005b34801561016957600080fd5b50610184600480360381019061017f9190612952565b610b31565b005b34801561019257600080fd5b5061019b610c02565b6040516101a891906129e6565b60405180910390f35b600660009054906101000a900460ff1681565b60045481565b6004548042106101d957600080fd5b6000600760003373ffffffffffffffffffffffffffffffffffffffff1673ffffffffffffffffffffffffffffffffffffffff16815260200190815260200160002080549050905060005b818110156103a8576000600760003373ffffffffffffffffffffffffffffffffffffffff1673ffffffffffffffffffffffffffffffffffffffff168152602001908152602001600020828154811061027e5761027d612a01565b5b90600052602060002001905060008060008985815181106102a2576102a1612a01565b5b60200260200101518986815181106102bd576102bc612a01565b5b60200260200101518987815181106102d8576102d7612a01565b5b60200260200101519250925092508183826040516020016102fb93929190612a99565b604051602081830303815290604052805190602001208460000154146103245750505050610395565b80610390576000801b600760003373ffffffffffffffffffffffffffffffffffffffff1673ffffffffffffffffffffffffffffffffffffffff168152602001908152602001600020868154811061037e5761037d612a01565b5b90600052602060002001600001819055505b505050505b80806103a090612b05565b915050610223565b505050505050565b6004548042116103bf57600080fd5b6005548042106103ce57600080fd5b6000600760003373ffffffffffffffffffffffffffffffffffffffff1673ffffffffffffffffffffffffffffffffffffffff1681526020019081526020016000208054905090508086511461042257600080fd5b8085511461042f57600080fd5b60005b81811015610569576000600760003373ffffffffffffffffffffffffffffffffffffffff1673ffffffffffffffffffffffffffffffffffffffff168152602001908152602001600020828154811061048d5761048c612a01565b5b90600052602060002001905060008060008a85815181106104b1576104b0612a01565b5b60200260200101518a86815181106104cc576104cb612a01565b5b60200260200101518a87815181106104e7576104e6612a01565b5b602002602001015192509250925081838260405160200161050a93929190612a99565b604051602081830303815290604052805190602001208460000154146105335750505050610556565b8061054557610543338484610cf1565b505b6000801b8460000181905550505050505b808061056190612b05565b915050610432565b50505050505050565b60055481565b60055480421161058757600080fd5b600660009054906101000a900460ff16156105a157600080fd5b6000600860006105b16000610e41565b81526020019081526020016000206000815481106105d2576105d1612a01565b5b906000526020600020906002020190506000600260009054906101000a900473ffffffffffffffffffffffffffffffffffffffff1673ffffffffffffffffffffffffffffffffffffffff166370a08231600360009054906101000a900473ffffffffffffffffffffffffffffffffffffffff166040518263ffffffff1660e01b81526004016106619190612bac565b602060405180830381865afa15801561067e573d6000803e3d6000fd5b505050506040513d601f19601f820116820180604052508101906106a29190612bdc565b90505b60006106b16000610e41565b826106bc9190612c09565b11156107d557600260009054906101000a900473ffffffffffffffffffffffffffffffffffffffff1673ffffffffffffffffffffffffffffffffffffffff1663a9059cbb8360000160009054906101000a900473ffffffffffffffffffffffffffffffffffffffff1684600101546040518363ffffffff1660e01b8152600401610747929190612c5e565b6020604051808303816000875af1158015610766573d6000803e3d6000fd5b505050506040513d601f19601f8201168201806040525081019061078a9190612c9c565b50600860006107996000610e41565b815260200190815260200160002060006107b3919061254f565b6107d06107c06000610e41565b6000610e9990919063ffffffff16565b6106a5565b60006107e16000610e41565b8284600101546107f19190612c09565b6107fb9190612cc9565b9050600260009054906101000a900473ffffffffffffffffffffffffffffffffffffffff1673ffffffffffffffffffffffffffffffffffffffff1663a9059cbb8460000160009054906101000a900473ffffffffffffffffffffffffffffffffffffffff16846040518363ffffffff1660e01b815260040161087e929190612c5e565b6020604051808303816000875af115801561089d573d6000803e3d6000fd5b505050506040513d601f19601f820116820180604052508101906108c19190612c9c565b50600260009054906101000a900473ffffffffffffffffffffffffffffffffffffffff1673ffffffffffffffffffffffffffffffffffffffff1663a9059cbb8460000160009054906101000a900473ffffffffffffffffffffffffffffffffffffffff16670de0b6b3a7640000846109399190612cc9565b6040518363ffffffff1660e01b8152600401610956929190612c5e565b6020604051808303816000875af1158015610975573d6000803e3d6000fd5b505050506040513d601f19601f820116820180604052508101906109999190612c9c565b50600860006109a86000610e41565b815260200190815260200160002060006109c2919061254f565b6109df6109cf6000610e41565b6000610e9990919063ffffffff16565b5b60006109ec6000610e41565b836109f79190612c09565b1115610b1057600260009054906101000a900473ffffffffffffffffffffffffffffffffffffffff1673ffffffffffffffffffffffffffffffffffffffff1663a9059cbb8460000160009054906101000a900473ffffffffffffffffffffffffffffffffffffffff1685600101546040518363ffffffff1660e01b8152600401610a82929190612c5e565b6020604051808303816000875af1158015610aa1573d6000803e3d6000fd5b505050506040513d601f19601f82011682018060405250810190610ac59190612c9c565b5060086000610ad46000610e41565b81526020019081526020016000206000610aee919061254f565b610b0b610afb6000610e41565b6000610e9990919063ffffffff16565b6109e0565b6001600660006101000a81548160ff02191690831515021790555050505050565b600454804210610b4057600080fd5b60018310610b4d57600080fd5b6000848484604051602001610b6493929190612a99565b604051602081830303815290604052805190602001209050600760003373ffffffffffffffffffffffffffffffffffffffff1673ffffffffffffffffffffffffffffffffffffffff168152602001908152602001600020604051806020016040528083815250908060018154018082558091505060019003906000526020600020016000909190919091506000820151816000015550505050505050565b600360009054906101000a900473ffffffffffffffffffffffffffffffffffffffff1681565b6000806201518083610c3a9190612d52565b9050610e1081610c4a9190612d83565b915050919050565b600080610e1083610c639190612d52565b9050603c81610c729190612d83565b915050919050565b6000603c82610c899190612d52565b9050919050565b600081603c84610ca09190612cc9565b610e1086610cae9190612cc9565b62015180610cbd8b8b8b61123f565b610cc79190612cc9565b610cd19190612db4565b610cdb9190612db4565b610ce59190612db4565b90509695505050505050565b6000600554804210610d0257600080fd5b3373ffffffffffffffffffffffffffffffffffffffff166108fc670de0b6b3a76400008587610d319190612cc9565b610d3b9190612cc9565b9081150290604051600060405180830381858888f19350505050158015610d66573d6000803e3d6000fd5b50610d7b84600061139e90919063ffffffff16565b6008600085815260200190815260200160002060405180604001604052808773ffffffffffffffffffffffffffffffffffffffff16815260200185815250908060018154018082558091505060019003906000526020600020906002020160009091909190915060008201518160000160006101000a81548173ffffffffffffffffffffffffffffffffffffffff021916908373ffffffffffffffffffffffffffffffffffffffff16021790555060208201518160010155505060019150509392505050565b60008160000154905060008114610e94575b60008260010160008381526020019081526020016000206002015414610e9357816001016000828152602001908152602001600020600201549050610e53565b5b919050565b60008103610ea657600080fd5b610eb08282611509565b610eb957600080fd5b6000806000846001016000858152602001908152602001600020600101541480610efb5750600084600101600085815260200190815260200160002060020154145b15610f0857829050610f65565b8360010160008481526020019081526020016000206002015490505b60008460010160008381526020019081526020016000206001015414610f6457836001016000828152602001908152602001600020600101549050610f24565b5b60008460010160008381526020019081526020016000206001015414610fa557836001016000828152602001908152602001600020600101549150610fc1565b8360010160008281526020019081526020016000206002015491505b600084600101600083815260200190815260200160002060000154905080856001016000858152602001908152602001600020600001819055506000811461106757846001016000828152602001908152602001600020600101548203611044578285600101600083815260200190815260200160002060010181905550611062565b82856001016000838152602001908152602001600020600201819055505b611071565b8285600001819055505b600085600101600084815260200190815260200160002060030160009054906101000a900460ff161590508483146111e2576110ae86848761154a565b856001016000868152602001908152602001600020600101548660010160008581526020019081526020016000206001018190555082866001016000886001016000878152602001908152602001600020600101548152602001908152602001600020600001819055508560010160008681526020019081526020016000206002015486600101600085815260200190815260200160002060020181905550828660010160008860010160008781526020019081526020016000206002015481526020019081526020016000206000018190555085600101600086815260200190815260200160002060030160009054906101000a900460ff1686600101600085815260200190815260200160002060030160006101000a81548160ff021916908315150217905550848380965081945050505b80156111f3576111f28685611600565b5b856001016000848152602001908152602001600020600080820160009055600182016000905560028201600090556003820160006101000a81549060ff02191690555050505050505050565b60006107b284101561125057600080fd5b600084905060008490506000849050600062253d8c60046064600c600e876112789190612e14565b6112829190612ea8565b611324886112909190612f12565b61129a9190612f12565b6112a49190612ea8565b60036112b09190612fa6565b6112ba9190612ea8565b600c80600c600e886112cc9190612e14565b6112d69190612ea8565b6112e09190612fa6565b6002876112ed9190612e14565b6112f79190612e14565b61016f6113049190612fa6565b61130e9190612ea8565b6004600c600e8861131f9190612e14565b6113299190612ea8565b6112c0896113379190612f12565b6113419190612f12565b6105b561134e9190612fa6565b6113589190612ea8565b617d4b866113669190612e14565b6113709190612f12565b61137a9190612f12565b6113849190612e14565b61138e9190612e14565b9050809450505050509392505050565b600081036113ab57600080fd5b6113b58282611509565b156113bf57600080fd5b600080836000015490505b6000811461141e57809150808310156113fd57836001016000828152602001908152602001600020600101549050611419565b8360010160008281526020019081526020016000206002015490505b6113ca565b604051806080016040528083815260200160008152602001600081526020016001151581525084600101600085815260200190815260200160002060008201518160000155602082015181600101556040820151816002015560608201518160030160006101000a81548160ff021916908315150217905550905050600082036114b0578284600001819055506114f9565b818310156114da5782846001016000848152602001908152602001600020600101819055506114f8565b82846001016000848152602001908152602001600020600201819055505b5b6115038484611d67565b50505050565b600080821415801561154257508260000154821480611541575060008360010160008481526020019081526020016000206000015414155b5b905092915050565b600083600101600083815260200190815260200160002060000154905080846001016000858152602001908152602001600020600001819055506000810361159a578284600001819055506115fa565b8360010160008281526020019081526020016000206001015482036115db5782846001016000838152602001908152602001600020600101819055506115f9565b82846001016000838152602001908152602001600020600201819055505b5b50505050565b60005b8260000154821415801561163a575082600101600083815260200190815260200160002060030160009054906101000a900460ff16155b15611d315760008360010160008481526020019081526020016000206000015490508360010160008281526020019081526020016000206001015483036119d55783600101600082815260200190815260200160002060020154915083600101600083815260200190815260200160002060030160009054906101000a900460ff161561174957600084600101600084815260200190815260200160002060030160006101000a81548160ff021916908315150217905550600184600101600083815260200190815260200160002060030160006101000a81548160ff02191690831515021790555061172d8482612273565b8360010160008281526020019081526020016000206002015491505b83600101600085600101600085815260200190815260200160002060010154815260200190815260200160002060030160009054906101000a900460ff161580156117cf575083600101600085600101600085815260200190815260200160002060020154815260200190815260200160002060030160009054906101000a900460ff16155b1561180d57600184600101600084815260200190815260200160002060030160006101000a81548160ff0219169083151502179055508092506119d0565b83600101600085600101600085815260200190815260200160002060020154815260200190815260200160002060030160009054906101000a900460ff166118ef57600084600101600086600101600086815260200190815260200160002060010154815260200190815260200160002060030160006101000a81548160ff021916908315150217905550600184600101600084815260200190815260200160002060030160006101000a81548160ff0219169083151502179055506118d384836123e1565b8360010160008281526020019081526020016000206002015491505b83600101600082815260200190815260200160002060030160009054906101000a900460ff1684600101600084815260200190815260200160002060030160006101000a81548160ff021916908315150217905550600084600101600083815260200190815260200160002060030160006101000a81548160ff021916908315150217905550600084600101600086600101600086815260200190815260200160002060020154815260200190815260200160002060030160006101000a81548160ff0219169083151502179055506119c88482612273565b836000015492505b611d2b565b83600101600082815260200190815260200160002060010154915083600101600083815260200190815260200160002060030160009054906101000a900460ff1615611aa357600084600101600084815260200190815260200160002060030160006101000a81548160ff021916908315150217905550600184600101600083815260200190815260200160002060030160006101000a81548160ff021916908315150217905550611a8784826123e1565b8360010160008281526020019081526020016000206001015491505b83600101600085600101600085815260200190815260200160002060020154815260200190815260200160002060030160009054906101000a900460ff16158015611b29575083600101600085600101600085815260200190815260200160002060010154815260200190815260200160002060030160009054906101000a900460ff16155b15611b6757600184600101600084815260200190815260200160002060030160006101000a81548160ff021916908315150217905550809250611d2a565b83600101600085600101600085815260200190815260200160002060010154815260200190815260200160002060030160009054906101000a900460ff16611c4957600084600101600086600101600086815260200190815260200160002060020154815260200190815260200160002060030160006101000a81548160ff021916908315150217905550600184600101600084815260200190815260200160002060030160006101000a81548160ff021916908315150217905550611c2d8483612273565b8360010160008281526020019081526020016000206001015491505b83600101600082815260200190815260200160002060030160009054906101000a900460ff1684600101600084815260200190815260200160002060030160006101000a81548160ff021916908315150217905550600084600101600083815260200190815260200160002060030160006101000a81548160ff021916908315150217905550600084600101600086600101600086815260200190815260200160002060010154815260200190815260200160002060030160006101000a81548160ff021916908315150217905550611d2284826123e1565b836000015492505b5b50611603565b600083600101600084815260200190815260200160002060030160006101000a81548160ff021916908315150217905550505050565b60005b82600001548214158015611db8575082600101600084600101600085815260200190815260200160002060000154815260200190815260200160002060030160009054906101000a900460ff165b156122395760008360010160008481526020019081526020016000206000015490508360010160008560010160008481526020019081526020016000206000015481526020019081526020016000206001015481036120245783600101600085600101600084815260200190815260200160002060000154815260200190815260200160002060020154915083600101600083815260200190815260200160002060030160009054906101000a900460ff1615611f3a57600084600101600083815260200190815260200160002060030160006101000a81548160ff021916908315150217905550600084600101600084815260200190815260200160002060030160006101000a81548160ff021916908315150217905550600184600101600086600101600085815260200190815260200160002060000154815260200190815260200160002060030160006101000a81548160ff02191690831515021790555083600101600082815260200190815260200160002060000154925061201f565b836001016000828152602001908152602001600020600201548303611f6757809250611f668484612273565b5b836001016000848152602001908152602001600020600001549050600084600101600083815260200190815260200160002060030160006101000a81548160ff021916908315150217905550600184600101600086600101600085815260200190815260200160002060000154815260200190815260200160002060030160006101000a81548160ff02191690831515021790555061201e84856001016000848152602001908152602001600020600001546123e1565b5b612233565b83600101600085600101600084815260200190815260200160002060000154815260200190815260200160002060010154915083600101600083815260200190815260200160002060030160009054906101000a900460ff161561214d57600084600101600083815260200190815260200160002060030160006101000a81548160ff021916908315150217905550600084600101600084815260200190815260200160002060030160006101000a81548160ff021916908315150217905550600184600101600086600101600085815260200190815260200160002060000154815260200190815260200160002060030160006101000a81548160ff021916908315150217905550836001016000828152602001908152602001600020600001549250612232565b83600101600082815260200190815260200160002060010154830361217a5780925061217984846123e1565b5b836001016000848152602001908152602001600020600001549050600084600101600083815260200190815260200160002060030160006101000a81548160ff021916908315150217905550600184600101600086600101600085815260200190815260200160002060000154815260200190815260200160002060030160006101000a81548160ff0219169083151502179055506122318485600101600084815260200190815260200160002060000154612273565b5b5b50611d6a565b60008360010160008560000154815260200190815260200160002060030160006101000a81548160ff021916908315150217905550505050565b60008260010160008381526020019081526020016000206002015490506000836001016000848152602001908152602001600020600001549050600084600101600084815260200190815260200160002060010154905080856001016000868152602001908152602001600020600201819055506000811461230d5783856001016000838152602001908152602001600020600001819055505b818560010160008581526020019081526020016000206000018190555060008203612340578285600001819055506123a0565b84600101600083815260200190815260200160002060010154840361238157828560010160008481526020019081526020016000206001018190555061239f565b82856001016000848152602001908152602001600020600201819055505b5b838560010160008581526020019081526020016000206001018190555082856001016000868152602001908152602001600020600001819055505050505050565b60008260010160008381526020019081526020016000206001015490506000836001016000848152602001908152602001600020600001549050600084600101600084815260200190815260200160002060020154905080856001016000868152602001908152602001600020600101819055506000811461247b5783856001016000838152602001908152602001600020600001819055505b8185600101600085815260200190815260200160002060000181905550600082036124ae5782856000018190555061250e565b8460010160008381526020019081526020016000206002015484036124ef57828560010160008481526020019081526020016000206002018190555061250d565b82856001016000848152602001908152602001600020600101819055505b5b838560010160008581526020019081526020016000206002018190555082856001016000868152602001908152602001600020600001819055505050505050565b50805460008255600202906000526020600020908101906125709190612573565b50565b5b808211156125b557600080820160006101000a81549073ffffffffffffffffffffffffffffffffffffffff0219169055600182016000905550600201612574565b5090565b60008115159050919050565b6125ce816125b9565b82525050565b60006020820190506125e960008301846125c5565b92915050565b6000819050919050565b612602816125ef565b82525050565b600060208201905061261d60008301846125f9565b92915050565b6000604051905090565b600080fd5b600080fd5b600080fd5b6000601f19601f8301169050919050565b7f4e487b7100000000000000000000000000000000000000000000000000000000600052604160045260246000fd5b6126858261263c565b810181811067ffffffffffffffff821117156126a4576126a361264d565b5b80604052505050565b60006126b7612623565b90506126c3828261267c565b919050565b600067ffffffffffffffff8211156126e3576126e261264d565b5b602082029050602081019050919050565b600080fd5b612702816125ef565b811461270d57600080fd5b50565b60008135905061271f816126f9565b92915050565b6000612738612733846126c8565b6126ad565b9050808382526020820190506020840283018581111561275b5761275a6126f4565b5b835b8181101561278457806127708882612710565b84526020840193505060208101905061275d565b5050509392505050565b600082601f8301126127a3576127a2612637565b5b81356127b3848260208601612725565b91505092915050565b600067ffffffffffffffff8211156127d7576127d661264d565b5b602082029050602081019050919050565b6127f1816125b9565b81146127fc57600080fd5b50565b60008135905061280e816127e8565b92915050565b6000612827612822846127bc565b6126ad565b9050808382526020820190506020840283018581111561284a576128496126f4565b5b835b81811015612873578061285f88826127ff565b84526020840193505060208101905061284c565b5050509392505050565b600082601f83011261289257612891612637565b5b81356128a2848260208601612814565b91505092915050565b6000806000606084860312156128c4576128c361262d565b5b600084013567ffffffffffffffff8111156128e2576128e1612632565b5b6128ee8682870161278e565b935050602084013567ffffffffffffffff81111561290f5761290e612632565b5b61291b8682870161278e565b925050604084013567ffffffffffffffff81111561293c5761293b612632565b5b6129488682870161287d565b9150509250925092565b60008060006060848603121561296b5761296a61262d565b5b600061297986828701612710565b935050602061298a86828701612710565b925050604061299b868287016127ff565b9150509250925092565b600073ffffffffffffffffffffffffffffffffffffffff82169050919050565b60006129d0826129a5565b9050919050565b6129e0816129c5565b82525050565b60006020820190506129fb60008301846129d7565b92915050565b7f4e487b7100000000000000000000000000000000000000000000000000000000600052603260045260246000fd5b6000819050919050565b612a4b612a46826125ef565b612a30565b82525050565b60008160f81b9050919050565b6000612a6982612a51565b9050919050565b6000612a7b82612a5e565b9050919050565b612a93612a8e826125b9565b612a70565b82525050565b6000612aa58286612a3a565b602082019150612ab58285612a3a565b602082019150612ac58284612a82565b600182019150819050949350505050565b7f4e487b7100000000000000000000000000000000000000000000000000000000600052601160045260246000fd5b6000612b10826125ef565b91507fffffffffffffffffffffffffffffffffffffffffffffffffffffffffffffffff8203612b4257612b41612ad6565b5b600182019050919050565b6000819050919050565b6000612b72612b6d612b68846129a5565b612b4d565b6129a5565b9050919050565b6000612b8482612b57565b9050919050565b6000612b9682612b79565b9050919050565b612ba681612b8b565b82525050565b6000602082019050612bc16000830184612b9d565b92915050565b600081519050612bd6816126f9565b92915050565b600060208284031215612bf257612bf161262d565b5b6000612c0084828501612bc7565b91505092915050565b6000612c14826125ef565b9150612c1f836125ef565b925082821015612c3257612c31612ad6565b5b828203905092915050565b6000612c48826129a5565b9050919050565b612c5881612c3d565b82525050565b6000604082019050612c736000830185612c4f565b612c8060208301846125f9565b9392505050565b600081519050612c96816127e8565b92915050565b600060208284031215612cb257612cb161262d565b5b6000612cc084828501612c87565b91505092915050565b6000612cd4826125ef565b9150612cdf836125ef565b9250817fffffffffffffffffffffffffffffffffffffffffffffffffffffffffffffffff0483118215151615612d1857612d17612ad6565b5b828202905092915050565b7f4e487b7100000000000000000000000000000000000000000000000000000000600052601260045260246000fd5b6000612d5d826125ef565b9150612d68836125ef565b925082612d7857612d77612d23565b5b828206905092915050565b6000612d8e826125ef565b9150612d99836125ef565b925082612da957612da8612d23565b5b828204905092915050565b6000612dbf826125ef565b9150612dca836125ef565b9250827fffffffffffffffffffffffffffffffffffffffffffffffffffffffffffffffff03821115612dff57612dfe612ad6565b5b828201905092915050565b6000819050919050565b6000612e1f82612e0a565b9150612e2a83612e0a565b9250827f800000000000000000000000000000000000000000000000000000000000000001821260008412151615612e6557612e64612ad6565b5b827f7fffffffffffffffffffffffffffffffffffffffffffffffffffffffffffffff018213600084121615612e9d57612e9c612ad6565b5b828203905092915050565b6000612eb382612e0a565b9150612ebe83612e0a565b925082612ece57612ecd612d23565b5b600160000383147f800000000000000000000000000000000000000000000000000000000000000083141615612f0757612f06612ad6565b5b828205905092915050565b6000612f1d82612e0a565b9150612f2883612e0a565b9250817f7fffffffffffffffffffffffffffffffffffffffffffffffffffffffffffffff03831360008312151615612f6357612f62612ad6565b5b817f8000000000000000000000000000000000000000000000000000000000000000038312600083121615612f9b57612f9a612ad6565b5b828201905092915050565b6000612fb182612e0a565b9150612fbc83612e0a565b9250827f7fffffffffffffffffffffffffffffffffffffffffffffffffffffffffffffff0482116000841360008413161615612ffb57612ffa612ad6565b5b817f8000000000000000000000000000000000000000000000000000000000000000058312600084126000841316161561303857613037612ad6565b5b827f8000000000000000000000000000000000000000000000000000000000000000058212600084136000841216161561307557613074612ad6565b5b827f7fffffffffffffffffffffffffffffffffffffffffffffffffffffffffffffff05821260008412600084121616156130b2576130b1612ad6565b5b82820290509291505056fea26469706673582212202142c47ded00804caa8df59ac3628cea7bff2782331c6570c700e4837df08eaf64736f6c634300080d003360806040523480156200001157600080fd5b506040518060400160405280600a81526020017f4e657665725368617265000000000000000000000000000000000000000000008152506040518060400160405280600381526020017f4e5354000000000000000000000000000000000000000000000000000000000081525081600390805190602001906200009692919062000256565b508060049080519060200190620000af92919062000256565b505050620000ce3369021e19e0c9bab2400000620000d460201b60201c565b620004b1565b600073ffffffffffffffffffffffffffffffffffffffff168273ffffffffffffffffffffffffffffffffffffffff160362000146576040517f08c379a00000000000000000000000000000000000000000000000000000000081526004016200013d9062000367565b60405180910390fd5b6200015a600083836200024c60201b60201c565b80600260008282546200016e9190620003c2565b92505081905550806000808473ffffffffffffffffffffffffffffffffffffffff1673ffffffffffffffffffffffffffffffffffffffff1681526020019081526020016000206000828254620001c59190620003c2565b925050819055508173ffffffffffffffffffffffffffffffffffffffff16600073ffffffffffffffffffffffffffffffffffffffff167fddf252ad1be2c89b69c2b068fc378daa952ba7f163c4a11628f55a4df523b3ef836040516200022c919062000430565b60405180910390a362000248600083836200025160201b60201c565b5050565b505050565b505050565b82805462000264906200047c565b90600052602060002090601f016020900481019282620002885760008555620002d4565b82601f10620002a357805160ff1916838001178555620002d4565b82800160010185558215620002d4579182015b82811115620002d3578251825591602001919060010190620002b6565b5b509050620002e39190620002e7565b5090565b5b8082111562000302576000816000905550600101620002e8565b5090565b600082825260208201905092915050565b7f45524332303a206d696e7420746f20746865207a65726f206164647265737300600082015250565b60006200034f601f8362000306565b91506200035c8262000317565b602082019050919050565b60006020820190508181036000830152620003828162000340565b9050919050565b6000819050919050565b7f4e487b7100000000000000000000000000000000000000000000000000000000600052601160045260246000fd5b6000620003cf8262000389565b9150620003dc8362000389565b9250827fffffffffffffffffffffffffffffffffffffffffffffffffffffffffffffffff0382111562000414576200041362000393565b5b828201905092915050565b6200042a8162000389565b82525050565b60006020820190506200044760008301846200041f565b92915050565b7f4e487b7100000000000000000000000000000000000000000000000000000000600052602260045260246000fd5b600060028204905060018216806200049557607f821691505b602082108103620004ab57620004aa6200044d565b5b50919050565b61126380620004c16000396000f3fe608060405234801561001057600080fd5b50600436106100a95760003560e01c80633950935111610071578063395093511461016857806370a082311461019857806395d89b41146101c8578063a457c2d7146101e6578063a9059cbb14610216578063dd62ed3e14610246576100a9565b806306fdde03146100ae578063095ea7b3146100cc57806318160ddd146100fc57806323b872dd1461011a578063313ce5671461014a575b600080fd5b6100b6610276565b6040516100c39190610b1e565b60405180910390f35b6100e660048036038101906100e19190610bd9565b610308565b6040516100f39190610c34565b60405180910390f35b61010461032b565b6040516101119190610c5e565b60405180910390f35b610134600480360381019061012f9190610c79565b610335565b6040516101419190610c34565b60405180910390f35b610152610364565b60405161015f9190610ce8565b60405180910390f35b610182600480360381019061017d9190610bd9565b61036d565b60405161018f9190610c34565b60405180910390f35b6101b260048036038101906101ad9190610d03565b6103a4565b6040516101bf9190610c5e565b60405180910390f35b6101d06103ec565b6040516101dd9190610b1e565b60405180910390f35b61020060048036038101906101fb9190610bd9565b61047e565b60405161020d9190610c34565b60405180910390f35b610230600480360381019061022b9190610bd9565b6104f5565b60405161023d9190610c34565b60405180910390f35b610260600480360381019061025b9190610d30565b610518565b60405161026d9190610c5e565b60405180910390f35b60606003805461028590610d9f565b80601f01602080910402602001604051908101604052809291908181526020018280546102b190610d9f565b80156102fe5780601f106102d3576101008083540402835291602001916102fe565b820191906000526020600020905b8154815290600101906020018083116102e157829003601f168201915b5050505050905090565b60008061031361059f565b90506103208185856105a7565b600191505092915050565b6000600254905090565b60008061034061059f565b905061034d858285610770565b6103588585856107fc565b60019150509392505050565b60006012905090565b60008061037861059f565b905061039981858561038a8589610518565b6103949190610dff565b6105a7565b600191505092915050565b60008060008373ffffffffffffffffffffffffffffffffffffffff1673ffffffffffffffffffffffffffffffffffffffff168152602001908152602001600020549050919050565b6060600480546103fb90610d9f565b80601f016020809104026020016040519081016040528092919081815260200182805461042790610d9f565b80156104745780601f1061044957610100808354040283529160200191610474565b820191906000526020600020905b81548152906001019060200180831161045757829003601f168201915b5050505050905090565b60008061048961059f565b905060006104978286610518565b9050838110156104dc576040517f08c379a00000000000000000000000000000000000000000000000000000000081526004016104d390610ec7565b60405180910390fd5b6104e982868684036105a7565b60019250505092915050565b60008061050061059f565b905061050d8185856107fc565b600191505092915050565b6000600160008473ffffffffffffffffffffffffffffffffffffffff1673ffffffffffffffffffffffffffffffffffffffff16815260200190815260200160002060008373ffffffffffffffffffffffffffffffffffffffff1673ffffffffffffffffffffffffffffffffffffffff16815260200190815260200160002054905092915050565b600033905090565b600073ffffffffffffffffffffffffffffffffffffffff168373ffffffffffffffffffffffffffffffffffffffff1603610616576040517f08c379a000000000000000000000000000000000000000000000000000000000815260040161060d90610f59565b60405180910390fd5b600073ffffffffffffffffffffffffffffffffffffffff168273ffffffffffffffffffffffffffffffffffffffff1603610685576040517f08c379a000000000000000000000000000000000000000000000000000000000815260040161067c90610feb565b60405180910390fd5b80600160008573ffffffffffffffffffffffffffffffffffffffff1673ffffffffffffffffffffffffffffffffffffffff16815260200190815260200160002060008473ffffffffffffffffffffffffffffffffffffffff1673ffffffffffffffffffffffffffffffffffffffff168152602001908152602001600020819055508173ffffffffffffffffffffffffffffffffffffffff168373ffffffffffffffffffffffffffffffffffffffff167f8c5be1e5ebec7d5bd14f71427d1e84f3dd0314c0f7b2291e5b200ac8c7c3b925836040516107639190610c5e565b60405180910390a3505050565b600061077c8484610518565b90507fffffffffffffffffffffffffffffffffffffffffffffffffffffffffffffffff81146107f657818110156107e8576040517f08c379a00000000000000000000000000000000000000000000000000000000081526004016107df90611057565b60405180910390fd5b6107f584848484036105a7565b5b50505050565b600073ffffffffffffffffffffffffffffffffffffffff168373ffffffffffffffffffffffffffffffffffffffff160361086b576040517f08c379a0000000000000000000000000000000000000000000000000000000008152600401610862906110e9565b60405180910390fd5b600073ffffffffffffffffffffffffffffffffffffffff168273ffffffffffffffffffffffffffffffffffffffff16036108da576040517f08c379a00000000000000000000000000000000000000000000000000000000081526004016108d19061117b565b60405180910390fd5b6108e5838383610a7b565b60008060008573ffffffffffffffffffffffffffffffffffffffff1673ffffffffffffffffffffffffffffffffffffffff1681526020019081526020016000205490508181101561096b576040517f08c379a00000000000000000000000000000000000000000000000000000000081526004016109629061120d565b60405180910390fd5b8181036000808673ffffffffffffffffffffffffffffffffffffffff1673ffffffffffffffffffffffffffffffffffffffff16815260200190815260200160002081905550816000808573ffffffffffffffffffffffffffffffffffffffff1673ffffffffffffffffffffffffffffffffffffffff16815260200190815260200160002060008282546109fe9190610dff565b925050819055508273ffffffffffffffffffffffffffffffffffffffff168473ffffffffffffffffffffffffffffffffffffffff167fddf252ad1be2c89b69c2b068fc378daa952ba7f163c4a11628f55a4df523b3ef84604051610a629190610c5e565b60405180910390a3610a75848484610a80565b50505050565b505050565b505050565b600081519050919050565b600082825260208201905092915050565b60005b83811015610abf578082015181840152602081019050610aa4565b83811115610ace576000848401525b50505050565b6000601f19601f8301169050919050565b6000610af082610a85565b610afa8185610a90565b9350610b0a818560208601610aa1565b610b1381610ad4565b840191505092915050565b60006020820190508181036000830152610b388184610ae5565b905092915050565b600080fd5b600073ffffffffffffffffffffffffffffffffffffffff82169050919050565b6000610b7082610b45565b9050919050565b610b8081610b65565b8114610b8b57600080fd5b50565b600081359050610b9d81610b77565b92915050565b6000819050919050565b610bb681610ba3565b8114610bc157600080fd5b50565b600081359050610bd381610bad565b92915050565b60008060408385031215610bf057610bef610b40565b5b6000610bfe85828601610b8e565b9250506020610c0f85828601610bc4565b9150509250929050565b60008115159050919050565b610c2e81610c19565b82525050565b6000602082019050610c496000830184610c25565b92915050565b610c5881610ba3565b82525050565b6000602082019050610c736000830184610c4f565b92915050565b600080600060608486031215610c9257610c91610b40565b5b6000610ca086828701610b8e565b9350506020610cb186828701610b8e565b9250506040610cc286828701610bc4565b9150509250925092565b600060ff82169050919050565b610ce281610ccc565b82525050565b6000602082019050610cfd6000830184610cd9565b92915050565b600060208284031215610d1957610d18610b40565b5b6000610d2784828501610b8e565b91505092915050565b60008060408385031215610d4757610d46610b40565b5b6000610d5585828601610b8e565b9250506020610d6685828601610b8e565b9150509250929050565b7f4e487b7100000000000000000000000000000000000000000000000000000000600052602260045260246000fd5b60006002820490506001821680610db757607f821691505b602082108103610dca57610dc9610d70565b5b50919050565b7f4e487b7100000000000000000000000000000000000000000000000000000000600052601160045260246000fd5b6000610e0a82610ba3565b9150610e1583610ba3565b9250827fffffffffffffffffffffffffffffffffffffffffffffffffffffffffffffffff03821115610e4a57610e49610dd0565b5b828201905092915050565b7f45524332303a2064656372656173656420616c6c6f77616e63652062656c6f7760008201527f207a65726f000000000000000000000000000000000000000000000000000000602082015250565b6000610eb1602583610a90565b9150610ebc82610e55565b604082019050919050565b60006020820190508181036000830152610ee081610ea4565b9050919050565b7f45524332303a20617070726f76652066726f6d20746865207a65726f2061646460008201527f7265737300000000000000000000000000000000000000000000000000000000602082015250565b6000610f43602483610a90565b9150610f4e82610ee7565b604082019050919050565b60006020820190508181036000830152610f7281610f36565b9050919050565b7f45524332303a20617070726f766520746f20746865207a65726f20616464726560008201527f7373000000000000000000000000000000000000000000000000000000000000602082015250565b6000610fd5602283610a90565b9150610fe082610f79565b604082019050919050565b6000602082019050818103600083015261100481610fc8565b9050919050565b7f45524332303a20696e73756666696369656e7420616c6c6f77616e6365000000600082015250565b6000611041601d83610a90565b915061104c8261100b565b602082019050919050565b6000602082019050818103600083015261107081611034565b9050919050565b7f45524332303a207472616e736665722066726f6d20746865207a65726f20616460008201527f6472657373000000000000000000000000000000000000000000000000000000602082015250565b60006110d3602583610a90565b91506110de82611077565b604082019050919050565b60006020820190508181036000830152611102816110c6565b9050919050565b7f45524332303a207472616e7366657220746f20746865207a65726f206164647260008201527f6573730000000000000000000000000000000000000000000000000000000000602082015250565b6000611165602383610a90565b915061117082611109565b604082019050919050565b6000602082019050818103600083015261119481611158565b9050919050565b7f45524332303a207472616e7366657220616d6f756e742065786365656473206260008201527f616c616e63650000000000000000000000000000000000000000000000000000602082015250565b60006111f7602683610a90565b91506112028261119b565b604082019050919050565b60006020820190508181036000830152611226816111ea565b905091905056fea2646970667358221220f9e22ac7eeca8df67a9e703ef14d6dec0ae83b1abc5a09af34ded1c1f1e6470564736f6c634300080d0033",
  "immutableReferences": {},
  "source": "pragma solidity ^0.8.0;\n\nimport \"./NeverShare.sol\";\nimport \"../DataStructures/BokkyPooBahsRedBlackTreeLibrary.sol\";\nimport \"../DataStructures/DateTime.sol\";\n\n\ncontract NST_offering {\n    \n    using BokkyPooBahsRedBlackTreeLibrary for BokkyPooBahsRedBlackTreeLibrary.Tree;\n    BokkyPooBahsRedBlackTreeLibrary.Tree bidsTree;\n\n    struct BlindedBid {\n        bytes32 blindedBid;\n    }\n\n    struct RevealedBid {\n        address bidder;\n        uint quantity;\n    }\n\n    NeverShare token;\n\n    address payable public NeverShareAddress;\n\n    uint public Round1End;\n\n    uint public Round2End;\n\n    bool public ended;\n\n    mapping(address => BlindedBid[]) round1Bids;\n\n    mapping(uint => RevealedBid[] ) values;\n\n    modifier onlyBefore(uint _time) { require(block.timestamp < _time);\n        _;}\n    modifier onlyAfter(uint _time) { require(block.timestamp > _time);\n        _;}\n\n    \n    //event Round2Ended(BokkyPooBahsRedBlackTreeLibrary.Tree bidsTree);\n\n    constructor(address payable _NeverShareAddress) {\n        NeverShareAddress = _NeverShareAddress;\n        token = new NeverShare();\n        Round1End = DateTime.timestampFromDateTime(2022,4,20, DateTime.getHour(block.timestamp), DateTime.getMinute(block.timestamp), DateTime.getSecond(block.timestamp));\n        Round2End = DateTime.timestampFromDateTime(2022,4,27, DateTime.getHour(block.timestamp), DateTime.getMinute(block.timestamp), DateTime.getSecond(block.timestamp));\n    }\n\n    function bid(uint quantity, uint price, bool fake) onlyBefore(Round1End) public {\n        require(price < 1);\n        bytes32 hashedBid  = keccak256(abi.encodePacked(quantity, price, fake));\n        round1Bids[msg.sender].push(BlindedBid({\n        blindedBid : hashedBid\n        }));\n    }\n\n    function reveal(\n        uint[] memory _prices, \n        uint[] memory _quantities, \n        bool[] memory _fake\n    ) \n        public onlyAfter(Round1End) onlyBefore(Round2End) \n    {\n        uint length = round1Bids[msg.sender].length;\n        require(_prices.length == length);\n        require(_quantities.length == length);\n\n        for (uint i=0; i<length; i++) {\n            BlindedBid storage bidToCheck = round1Bids[msg.sender][i];\n            (uint price, uint quantity, bool fake) = (_prices[i], _quantities[i], _fake[i]);\n            if (bidToCheck.blindedBid != keccak256(abi.encodePacked(quantity, price, fake))) {\n                continue;\n            }\n            \n            if (!fake) {\n                submitBid(msg.sender, price, quantity);\n            }\n            bidToCheck.blindedBid = bytes32(0);\n        }\n    }\n\n    function issueCoins() public payable onlyAfter(Round2End) {\n        require(!ended);\n        //emit Round2Ended(bidsTree);\n\n        RevealedBid storage currentBid = values[bidsTree.last()][0];\n        uint NeverShareHoldings = token.balanceOf(NeverShareAddress);\n        while (NeverShareHoldings - bidsTree.last() > 0) {\n            token.transfer(currentBid.bidder, currentBid.quantity);\n            delete values[bidsTree.last()];\n            bidsTree.remove(bidsTree.last());\n        }\n\n        uint refundAmount = ( currentBid.quantity - NeverShareHoldings ) * bidsTree.last();\n        token.transfer(currentBid.bidder, NeverShareHoldings);\n        token.transfer(currentBid.bidder, refundAmount * (1 ether));\n        delete values[bidsTree.last()];\n        bidsTree.remove(bidsTree.last());\n\n        while (NeverShareHoldings - bidsTree.last() > 0) {\n            token.transfer(currentBid.bidder, currentBid.quantity);\n            delete values[bidsTree.last()];\n            bidsTree.remove(bidsTree.last());\n        }\n        ended = true;      \n\n    }\n\n    // Investors can withdraw bids before Round 1 ends\n    function withdrawBid(\n        uint[] memory _prices, \n        uint[] memory _quantities, \n        bool[] memory _fake\n    ) onlyBefore(Round1End) public {\n        uint length = round1Bids[msg.sender].length;\n        for (uint i=0; i<length; i++) {\n            BlindedBid storage bidToCheck = round1Bids[msg.sender][i];\n            (uint price, uint quantity, bool fake) = (_prices[i], _quantities[i], _fake[i]);\n            if (bidToCheck.blindedBid != keccak256(abi.encodePacked(quantity, price, fake))) {\n                continue;\n            }\n            if(!fake) {\n                round1Bids[msg.sender][i].blindedBid = 0;\n            }\n        }\n    }\n\n    function submitBid(address _bidder, uint _price, uint _quantity) onlyBefore(Round2End) internal returns(bool success)\n    {\n        payable(msg.sender).transfer(_price * _quantity * (1 ether));\n        bidsTree.insert(_price);\n        values[_price].push(RevealedBid({bidder : _bidder, quantity : _quantity}));\n\n        return true;\n    }\n}",
  "sourcePath": "/Users/aidanmarley/NeverShare/contracts/NST_offering.sol",
  "compiler": {
    "name": "solc",
    "version": "0.8.13+commit.abaa5c0e.Emscripten.clang"
  },
  "schemaVersion": "3.4.6",
  "updatedAt": "2022-04-12T03:22:18.741Z",
  "devdoc": {
    "kind": "dev",
    "methods": {},
    "version": 1
  },
  "userdoc": {
    "kind": "user",
    "methods": {},
    "version": 1
  }
}